{
  "contractName": "Relationships",
  "abi": [
    {
      "anonymous": false,
      "inputs": [
        {
          "indexed": true,
          "internalType": "address",
          "name": "previousOwner",
          "type": "address"
        },
        {
          "indexed": true,
          "internalType": "address",
          "name": "newOwner",
          "type": "address"
        }
      ],
      "name": "OwnershipTransferred",
      "type": "event"
    },
    {
      "anonymous": false,
      "inputs": [
        {
          "indexed": false,
          "internalType": "address",
          "name": "account",
          "type": "address"
        }
      ],
      "name": "Paused",
      "type": "event"
    },
    {
      "anonymous": false,
      "inputs": [
        {
          "indexed": false,
          "internalType": "string",
          "name": "first_person",
          "type": "string"
        },
        {
          "indexed": false,
          "internalType": "string",
          "name": "second_person",
          "type": "string"
        },
        {
          "indexed": false,
          "internalType": "enum Relationships.Status",
          "name": "status",
          "type": "uint8"
        },
        {
          "indexed": false,
          "internalType": "uint256",
          "name": "kids",
          "type": "uint256"
        }
      ],
      "name": "RelationshipCreated",
      "type": "event"
    },
    {
      "anonymous": false,
      "inputs": [
        {
          "indexed": false,
          "internalType": "string",
          "name": "name",
          "type": "string"
        },
        {
          "indexed": false,
          "internalType": "enum Relationships.Status",
          "name": "status",
          "type": "uint8"
        }
      ],
      "name": "RelationshipTerminated",
      "type": "event"
    },
    {
      "anonymous": false,
      "inputs": [
        {
          "indexed": false,
          "internalType": "address",
          "name": "account",
          "type": "address"
        }
      ],
      "name": "Unpaused",
      "type": "event"
    },
    {
      "anonymous": false,
      "inputs": [
        {
          "indexed": false,
          "internalType": "uint256",
          "name": "kids",
          "type": "uint256"
        }
      ],
      "name": "addMoreKids",
      "type": "event"
    },
    {
      "inputs": [
        {
          "internalType": "address",
          "name": "",
          "type": "address"
        }
      ],
      "name": "addressToRelationship",
      "outputs": [
        {
          "internalType": "uint256",
          "name": "id",
          "type": "uint256"
        },
        {
          "internalType": "address",
          "name": "creator",
          "type": "address"
        },
        {
          "internalType": "string",
          "name": "first_person",
          "type": "string"
        },
        {
          "internalType": "string",
          "name": "second_person",
          "type": "string"
        },
        {
          "internalType": "enum Relationships.Status",
          "name": "status",
          "type": "uint8"
        },
        {
          "internalType": "uint256",
          "name": "kids",
          "type": "uint256"
        }
      ],
      "stateMutability": "view",
      "type": "function",
      "constant": true
    },
    {
      "inputs": [],
      "name": "owner",
      "outputs": [
        {
          "internalType": "address",
          "name": "",
          "type": "address"
        }
      ],
      "stateMutability": "view",
      "type": "function",
      "constant": true
    },
    {
      "inputs": [],
      "name": "paused",
      "outputs": [
        {
          "internalType": "bool",
          "name": "",
          "type": "bool"
        }
      ],
      "stateMutability": "view",
      "type": "function",
      "constant": true
    },
    {
      "inputs": [],
      "name": "renounceOwnership",
      "outputs": [],
      "stateMutability": "nonpayable",
      "type": "function"
    },
    {
      "inputs": [
        {
          "internalType": "address",
          "name": "newOwner",
          "type": "address"
        }
      ],
      "name": "transferOwnership",
      "outputs": [],
      "stateMutability": "nonpayable",
      "type": "function"
    },
    {
      "inputs": [
        {
          "internalType": "address",
          "name": "",
          "type": "address"
        },
        {
          "internalType": "uint256",
          "name": "",
          "type": "uint256"
        }
      ],
      "name": "userPrepositions",
      "outputs": [
        {
          "internalType": "address",
          "name": "",
          "type": "address"
        }
      ],
      "stateMutability": "view",
      "type": "function",
      "constant": true
    },
    {
      "inputs": [
        {
          "internalType": "uint256",
          "name": "newCut",
          "type": "uint256"
        }
      ],
      "name": "setCut",
      "outputs": [],
      "stateMutability": "nonpayable",
      "type": "function"
    },
    {
      "inputs": [
        {
          "internalType": "string",
          "name": "first_person",
          "type": "string"
        },
        {
          "internalType": "string",
          "name": "second_person",
          "type": "string"
        },
        {
          "internalType": "enum Relationships.Status",
          "name": "status",
          "type": "uint8"
        },
        {
          "internalType": "uint256",
          "name": "kids",
          "type": "uint256"
        }
      ],
      "name": "createRelationship",
      "outputs": [],
      "stateMutability": "nonpayable",
      "type": "function"
    },
    {
      "inputs": [
        {
          "internalType": "string",
          "name": "name",
          "type": "string"
        }
      ],
      "name": "itsNotWorking",
      "outputs": [],
      "stateMutability": "payable",
      "type": "function",
      "payable": true
    },
    {
      "inputs": [
        {
          "internalType": "uint256",
          "name": "kids",
          "type": "uint256"
        }
      ],
      "name": "addKids",
      "outputs": [],
      "stateMutability": "payable",
      "type": "function",
      "payable": true
    },
    {
      "inputs": [
        {
          "internalType": "address",
          "name": "user",
          "type": "address"
        }
      ],
      "name": "preposeARelationship",
      "outputs": [],
      "stateMutability": "payable",
      "type": "function",
      "payable": true
    },
    {
      "inputs": [
        {
          "internalType": "address",
          "name": "user",
          "type": "address"
        }
      ],
      "name": "acceptRelationship",
      "outputs": [],
      "stateMutability": "payable",
      "type": "function",
      "payable": true
    }
  ],
  "bytecode": "0x608060405234801561001057600080fd5b5061002d61002261005360201b60201c565b61005b60201b60201c565b60008060146101000a81548160ff0219169083151502179055506001808190555061011f565b600033905090565b60008060009054906101000a900473ffffffffffffffffffffffffffffffffffffffff169050816000806101000a81548173ffffffffffffffffffffffffffffffffffffffff021916908373ffffffffffffffffffffffffffffffffffffffff1602179055508173ffffffffffffffffffffffffffffffffffffffff168173ffffffffffffffffffffffffffffffffffffffff167f8be0079c531659141344cd1fd0a4f28419497f9722a3daafe3b4186f6b6457e060405160405180910390a35050565b611b958061012e6000396000f3fe6080604052600436106100a75760003560e01c80637d1599b7116100645780637d1599b71461019e5780638da5cb5b146101db5780639054070114610206578063dbd0c1fa14610222578063dd1294371461023e578063f2fde38b1461025a576100a7565b806303127334146100ac5780632db35157146100ee5780635aaef0741461010a5780635c975abb14610133578063715018a61461015e578063727cdf8714610175575b600080fd5b3480156100b857600080fd5b506100d360048036038101906100ce9190611305565b610283565b6040516100e59695949392919061146a565b60405180910390f35b61010860048036038101906101039190611305565b6103fc565b005b34801561011657600080fd5b50610131600480360381019061012c919061165f565b6103ff565b005b34801561013f57600080fd5b5061014861068e565b6040516101559190611719565b60405180910390f35b34801561016a57600080fd5b506101736106a4565b005b34801561018157600080fd5b5061019c60048036038101906101979190611734565b61072c565b005b3480156101aa57600080fd5b506101c560048036038101906101c09190611761565b6107b2565b6040516101d291906117a1565b60405180910390f35b3480156101e757600080fd5b506101f0610800565b6040516101fd91906117a1565b60405180910390f35b610220600480360381019061021b9190611734565b610829565b005b61023c60048036038101906102379190611305565b6109fc565b005b610258600480360381019061025391906117bc565b6109ff565b005b34801561026657600080fd5b50610281600480360381019061027c9190611305565b611008565b005b60046020528060005260406000206000915090508060000154908060010160009054906101000a900473ffffffffffffffffffffffffffffffffffffffff16908060020180546102d290611834565b80601f01602080910402602001604051908101604052809291908181526020018280546102fe90611834565b801561034b5780601f106103205761010080835404028352916020019161034b565b820191906000526020600020905b81548152906001019060200180831161032e57829003601f168201915b50505050509080600301805461036090611834565b80601f016020809104026020016040519081016040528092919081815260200182805461038c90611834565b80156103d95780601f106103ae576101008083540402835291602001916103d9565b820191906000526020600020905b8154815290600101906020018083116103bc57829003601f168201915b5050505050908060040160009054906101000a900460ff16908060050154905086565b50565b338073ffffffffffffffffffffffffffffffffffffffff163373ffffffffffffffffffffffffffffffffffffffff161461043857600080fd5b61044061068e565b15610480576040517f08c379a0000000000000000000000000000000000000000000000000000000008152600401610477906118b2565b60405180910390fd5b600260015414156104c6576040517f08c379a00000000000000000000000000000000000000000000000000000000081526004016104bd9061191e565b60405180910390fd5b60026001819055506104d86002611100565b60006104e46002611116565b90506040518060c001604052808281526020013373ffffffffffffffffffffffffffffffffffffffff168152602001878152602001868152602001856002811115610532576105316113f3565b5b815260200184815250600460003373ffffffffffffffffffffffffffffffffffffffff1673ffffffffffffffffffffffffffffffffffffffff1681526020019081526020016000206000820151816000015560208201518160010160006101000a81548173ffffffffffffffffffffffffffffffffffffffff021916908373ffffffffffffffffffffffffffffffffffffffff16021790555060408201518160020190805190602001906105e79291906111f0565b5060608201518160030190805190602001906106049291906111f0565b5060808201518160040160006101000a81548160ff021916908360028111156106305761062f6113f3565b5b021790555060a082015181600501559050507f2f6899730949eeb3195f19fc43a0bb4434f080426e69055e1e0e722a0e0a47fb86868686604051610677949392919061193e565b60405180910390a150600180819055505050505050565b60008060149054906101000a900460ff16905090565b6106ac611124565b73ffffffffffffffffffffffffffffffffffffffff166106ca610800565b73ffffffffffffffffffffffffffffffffffffffff1614610720576040517f08c379a0000000000000000000000000000000000000000000000000000000008152600401610717906119dd565b60405180910390fd5b61072a600061112c565b565b610734611124565b73ffffffffffffffffffffffffffffffffffffffff16610752610800565b73ffffffffffffffffffffffffffffffffffffffff16146107a8576040517f08c379a000000000000000000000000000000000000000000000000000000000815260040161079f906119dd565b60405180910390fd5b8060038190555050565b600560205281600052604060002081815481106107ce57600080fd5b906000526020600020016000915091509054906101000a900473ffffffffffffffffffffffffffffffffffffffff1681565b60008060009054906101000a900473ffffffffffffffffffffffffffffffffffffffff16905090565b3360028081111561083d5761083c6113f3565b5b600460008373ffffffffffffffffffffffffffffffffffffffff1673ffffffffffffffffffffffffffffffffffffffff16815260200190815260200160002060040160009054906101000a900460ff16600281111561089f5761089e6113f3565b5b148061091e5750600160028111156108ba576108b96113f3565b5b600460008373ffffffffffffffffffffffffffffffffffffffff1673ffffffffffffffffffffffffffffffffffffffff16815260200190815260200160002060040160009054906101000a900460ff16600281111561091c5761091b6113f3565b5b145b61092757600080fd5b6000600460003373ffffffffffffffffffffffffffffffffffffffff1673ffffffffffffffffffffffffffffffffffffffff16815260200190815260200160002060050154836109779190611a2c565b905080600460003373ffffffffffffffffffffffffffffffffffffffff1673ffffffffffffffffffffffffffffffffffffffff168152602001908152602001600020600501819055507f9e61a98f7d3862de925ea6ec0dc5511d8fb3511dcfcc0812f4c181633b5a4649816040516109ef9190611a82565b60405180910390a1505050565b50565b33600280811115610a1357610a126113f3565b5b600460008373ffffffffffffffffffffffffffffffffffffffff1673ffffffffffffffffffffffffffffffffffffffff16815260200190815260200160002060040160009054906101000a900460ff166002811115610a7557610a746113f3565b5b1480610af4575060016002811115610a9057610a8f6113f3565b5b600460008373ffffffffffffffffffffffffffffffffffffffff1673ffffffffffffffffffffffffffffffffffffffff16815260200190815260200160002060040160009054906101000a900460ff166002811115610af257610af16113f3565b5b145b610afd57600080fd5b816000600460003373ffffffffffffffffffffffffffffffffffffffff1673ffffffffffffffffffffffffffffffffffffffff1681526020019081526020016000206002018054610b4d90611834565b80601f0160208091040260200160405190810160405280929190818152602001828054610b7990611834565b8015610bc65780601f10610b9b57610100808354040283529160200191610bc6565b820191906000526020600020905b815481529060010190602001808311610ba957829003601f168201915b505050505090506000600460003373ffffffffffffffffffffffffffffffffffffffff1673ffffffffffffffffffffffffffffffffffffffff1681526020019081526020016000206003018054610c1c90611834565b80601f0160208091040260200160405190810160405280929190818152602001828054610c4890611834565b8015610c955780601f10610c6a57610100808354040283529160200191610c95565b820191906000526020600020905b815481529060010190602001808311610c7857829003601f168201915b50505050509050828051906020012082805190602001201480610cc5575082805190602001208180519060200120145b610cce57600080fd5b6000600460003373ffffffffffffffffffffffffffffffffffffffff1673ffffffffffffffffffffffffffffffffffffffff1681526020019081526020016000206002018054610d1d90611834565b80601f0160208091040260200160405190810160405280929190818152602001828054610d4990611834565b8015610d965780601f10610d6b57610100808354040283529160200191610d96565b820191906000526020600020905b815481529060010190602001808311610d7957829003601f168201915b505050505090506000600460003373ffffffffffffffffffffffffffffffffffffffff1673ffffffffffffffffffffffffffffffffffffffff1681526020019081526020016000206003018054610dec90611834565b80601f0160208091040260200160405190810160405280929190818152602001828054610e1890611834565b8015610e655780601f10610e3a57610100808354040283529160200191610e65565b820191906000526020600020905b815481529060010190602001808311610e4857829003601f168201915b50505050509050868051906020012082805190602001201415610e9957604051806020016040528060008152509150610eac565b6040518060200160405280600081525090505b81600460003373ffffffffffffffffffffffffffffffffffffffff1673ffffffffffffffffffffffffffffffffffffffff1681526020019081526020016000206002019080519060200190610f029291906111f0565b5080600460003373ffffffffffffffffffffffffffffffffffffffff1673ffffffffffffffffffffffffffffffffffffffff1681526020019081526020016000206003019080519060200190610f599291906111f0565b506000600460003373ffffffffffffffffffffffffffffffffffffffff1673ffffffffffffffffffffffffffffffffffffffff16815260200190815260200160002060040160006101000a81548160ff02191690836002811115610fc057610fbf6113f3565b5b02179055507f1fe7c3f527ae2f9ba75cbbd00aa8d00e163d062450070f22d5c2527e3c5de3bb876000604051610ff7929190611a9d565b60405180910390a150505050505050565b611010611124565b73ffffffffffffffffffffffffffffffffffffffff1661102e610800565b73ffffffffffffffffffffffffffffffffffffffff1614611084576040517f08c379a000000000000000000000000000000000000000000000000000000000815260040161107b906119dd565b60405180910390fd5b600073ffffffffffffffffffffffffffffffffffffffff168173ffffffffffffffffffffffffffffffffffffffff1614156110f4576040517f08c379a00000000000000000000000000000000000000000000000000000000081526004016110eb90611b3f565b60405180910390fd5b6110fd8161112c565b50565b6001816000016000828254019250508190555050565b600081600001549050919050565b600033905090565b60008060009054906101000a900473ffffffffffffffffffffffffffffffffffffffff169050816000806101000a81548173ffffffffffffffffffffffffffffffffffffffff021916908373ffffffffffffffffffffffffffffffffffffffff1602179055508173ffffffffffffffffffffffffffffffffffffffff168173ffffffffffffffffffffffffffffffffffffffff167f8be0079c531659141344cd1fd0a4f28419497f9722a3daafe3b4186f6b6457e060405160405180910390a35050565b8280546111fc90611834565b90600052602060002090601f01602090048101928261121e5760008555611265565b82601f1061123757805160ff1916838001178555611265565b82800160010185558215611265579182015b82811115611264578251825591602001919060010190611249565b5b5090506112729190611276565b5090565b5b8082111561128f576000816000905550600101611277565b5090565b6000604051905090565b600080fd5b600080fd5b600073ffffffffffffffffffffffffffffffffffffffff82169050919050565b60006112d2826112a7565b9050919050565b6112e2816112c7565b81146112ed57600080fd5b50565b6000813590506112ff816112d9565b92915050565b60006020828403121561131b5761131a61129d565b5b6000611329848285016112f0565b91505092915050565b6000819050919050565b61134581611332565b82525050565b611354816112c7565b82525050565b600081519050919050565b600082825260208201905092915050565b60005b83811015611394578082015181840152602081019050611379565b838111156113a3576000848401525b50505050565b6000601f19601f8301169050919050565b60006113c58261135a565b6113cf8185611365565b93506113df818560208601611376565b6113e8816113a9565b840191505092915050565b7f4e487b7100000000000000000000000000000000000000000000000000000000600052602160045260246000fd5b60038110611433576114326113f3565b5b50565b600081905061144482611422565b919050565b600061145482611436565b9050919050565b61146481611449565b82525050565b600060c08201905061147f600083018961133c565b61148c602083018861134b565b818103604083015261149e81876113ba565b905081810360608301526114b281866113ba565b90506114c1608083018561145b565b6114ce60a083018461133c565b979650505050505050565b600080fd5b600080fd5b7f4e487b7100000000000000000000000000000000000000000000000000000000600052604160045260246000fd5b61151b826113a9565b810181811067ffffffffffffffff8211171561153a576115396114e3565b5b80604052505050565b600061154d611293565b90506115598282611512565b919050565b600067ffffffffffffffff821115611579576115786114e3565b5b611582826113a9565b9050602081019050919050565b82818337600083830152505050565b60006115b16115ac8461155e565b611543565b9050828152602081018484840111156115cd576115cc6114de565b5b6115d884828561158f565b509392505050565b600082601f8301126115f5576115f46114d9565b5b813561160584826020860161159e565b91505092915050565b6003811061161b57600080fd5b50565b60008135905061162d8161160e565b92915050565b61163c81611332565b811461164757600080fd5b50565b60008135905061165981611633565b92915050565b600080600080608085870312156116795761167861129d565b5b600085013567ffffffffffffffff811115611697576116966112a2565b5b6116a3878288016115e0565b945050602085013567ffffffffffffffff8111156116c4576116c36112a2565b5b6116d0878288016115e0565b93505060406116e18782880161161e565b92505060606116f28782880161164a565b91505092959194509250565b60008115159050919050565b611713816116fe565b82525050565b600060208201905061172e600083018461170a565b92915050565b60006020828403121561174a5761174961129d565b5b60006117588482850161164a565b91505092915050565b600080604083850312156117785761177761129d565b5b6000611786858286016112f0565b92505060206117978582860161164a565b9150509250929050565b60006020820190506117b6600083018461134b565b92915050565b6000602082840312156117d2576117d161129d565b5b600082013567ffffffffffffffff8111156117f0576117ef6112a2565b5b6117fc848285016115e0565b91505092915050565b7f4e487b7100000000000000000000000000000000000000000000000000000000600052602260045260246000fd5b6000600282049050600182168061184c57607f821691505b602082108114156118605761185f611805565b5b50919050565b7f5061757361626c653a2070617573656400000000000000000000000000000000600082015250565b600061189c601083611365565b91506118a782611866565b602082019050919050565b600060208201905081810360008301526118cb8161188f565b9050919050565b7f5265656e7472616e637947756172643a207265656e7472616e742063616c6c00600082015250565b6000611908601f83611365565b9150611913826118d2565b602082019050919050565b60006020820190508181036000830152611937816118fb565b9050919050565b6000608082019050818103600083015261195881876113ba565b9050818103602083015261196c81866113ba565b905061197b604083018561145b565b611988606083018461133c565b95945050505050565b7f4f776e61626c653a2063616c6c6572206973206e6f7420746865206f776e6572600082015250565b60006119c7602083611365565b91506119d282611991565b602082019050919050565b600060208201905081810360008301526119f6816119ba565b9050919050565b7f4e487b7100000000000000000000000000000000000000000000000000000000600052601160045260246000fd5b6000611a3782611332565b9150611a4283611332565b9250827fffffffffffffffffffffffffffffffffffffffffffffffffffffffffffffffff03821115611a7757611a766119fd565b5b828201905092915050565b6000602082019050611a97600083018461133c565b92915050565b60006040820190508181036000830152611ab781856113ba565b9050611ac6602083018461145b565b9392505050565b7f4f776e61626c653a206e6577206f776e657220697320746865207a65726f206160008201527f6464726573730000000000000000000000000000000000000000000000000000602082015250565b6000611b29602683611365565b9150611b3482611acd565b604082019050919050565b60006020820190508181036000830152611b5881611b1c565b905091905056fea26469706673582212206a156bfbdf0712ff90121a5c0c625f62caf715d6c6e220e068e659e47d83a12a64736f6c634300080a0033",
  "immutableReferences": {},
  "source": "// SPDX-License-Identifier: MIT\r\n\r\npragma solidity 0.8.10;\r\nimport \"../@openzeppelin/contracts/utils/Counters.sol\";\r\nimport \"../@openzeppelin/contracts/utils/math/SafeMath.sol\";\r\nimport \"../@openzeppelin/contracts/access/Ownable.sol\";\r\nimport \"../@openzeppelin/contracts/security/Pausable.sol\";\r\nimport \"../@openzeppelin/contracts/security/ReentrancyGuard.sol\";\r\n\r\n/// @title Relationships\r\n/// @author Jurij Porl\r\n/// @notice This contract allows you to define you relationship status on blockchain\r\n/// @dev You can get hitched on blockchain\r\ncontract Relationships is Ownable, Pausable, ReentrancyGuard{\r\n    using Counters for Counters.Counter;\r\n    Counters.Counter private _relationshipIds;\r\n    using SafeMath for uint256;\r\n\r\n    ///@dev the cut that the contract will take from every relationship created on it. Will implement later ***\r\n    uint cut;\r\n\r\n    ///@dev state enum for describing the person relationship status\r\n    enum Status { SINGLE, TAKEN, MARRIED} \r\n\r\n    ///@dev struct that defines all the needed data for the relationship\r\n    struct Relationship{\r\n        uint256 id;\r\n        address creator;\r\n        string  first_person;\r\n        string second_person;\r\n        Status status;\r\n        uint kids;\r\n    }\r\n\r\n    ///@dev mapping from a uniqe address to a Relathionship... Our contract practices monogamy so is possible to only have one relationship at time\r\n    mapping (address => Relationship) public addressToRelationship;\r\n\r\n    ///@dev relationship prepositions for a certain address... Will implement later ***\r\n    mapping (address => address[]) public userPrepositions; \r\n\r\n    ///@dev Emits when createRelathionship function is called\r\n    event RelationshipCreated(string first_person,string second_person,Status status,uint kids);\r\n    ///@dev Emits when itsNotWorking function is called\r\n    event RelationshipTerminated(string name, Status status);\r\n    ///@dev Emits when addKids function is called\r\n    event addMoreKids(uint kids);\r\n\r\n\r\n    ///@dev Check if the caller of the function is really msg.sender \r\n    ///@param _address address of msg.sender\r\n    modifier verifyCaller (address _address) { \r\n     require (msg.sender == _address); \r\n    _;\r\n  }\r\n\r\n    ///@dev Check if the caller of the function is Taken or Married \r\n    ///@param _user the person who is in a relathionship\r\n    modifier inRelationship(address _user){\r\n        require(( addressToRelationship[_user].status == Status.MARRIED ) ||\r\n                (addressToRelationship[_user].status == Status.TAKEN ));\r\n        _;\r\n    }\r\n\r\n    ///@dev Checking if the person that we want to remove exsists in the relationship\r\n    ///@param name the persons name we want to remove from relationship\r\n    modifier personExsist(string memory name){\r\n        string memory first_person = addressToRelationship[msg.sender].first_person;\r\n        string memory second_person = addressToRelationship[msg.sender].second_person;\r\n        require((keccak256(bytes(first_person)) == keccak256(bytes(name)) ) || \r\n                (keccak256(bytes(second_person)) == keccak256(bytes(name)) ));\r\n    _;\r\n    }\r\n\r\n\r\n    ///@dev the cut that the contract will take from every relationship created on it. Will implement later ***\r\n    ///@param newCut is the new value the contract will take for its cut when the relationship is made. Only owner can change that cut \r\n    function setCut(uint newCut ) public onlyOwner{\r\n        cut = newCut;\r\n    }\r\n    \r\n    ///@param first_person first persone of the relationship\r\n    ///@param second_person second persone of the relationship\r\n    ///@param status in what kind of relathionship this persons are\r\n    ///@param kids how many kids does those persons have togheter\r\n    ///@notice Create a new relationship\r\n    ///@dev Save relationship into the smartcontract\r\n    function createRelationship(\r\n        string memory first_person,\r\n        string memory second_person,\r\n        Status status,\r\n        uint kids)\r\n        public\r\n        verifyCaller(msg.sender)\r\n        whenNotPaused\r\n        nonReentrant\r\n        {\r\n            _relationshipIds.increment();\r\n            uint256 newRelationshipId = _relationshipIds.current();\r\n            addressToRelationship[msg.sender] = Relationship(newRelationshipId, msg.sender, first_person, second_person, status, kids);\r\n\r\n            emit RelationshipCreated( first_person, second_person, status, kids);\r\n    }\r\n\r\n    ///@dev Delete the person choosed from the relaationship, used keccak256 to check which person to remove\r\n    ///@param name the persons name we want to remove from relationship\r\n    function itsNotWorking(string memory name) \r\n    public \r\n    payable\r\n    inRelationship(msg.sender)\r\n    personExsist(name) \r\n     {\r\n        string memory first_person = addressToRelationship[msg.sender].first_person;\r\n        string memory second_person = addressToRelationship[msg.sender].second_person;\r\n\r\n        if (keccak256(bytes(first_person)) == keccak256(bytes(name)) ) {\r\n            first_person = \"\";\r\n        } else {\r\n            second_person = \"\";\r\n        }\r\n\r\n        \r\n        //addressToRelationship[msg.sender] = Relationship(id, msg.sender, first_person, second_person, Status.SINGLE, kids);\r\n        addressToRelationship[msg.sender].first_person = first_person;\r\n        addressToRelationship[msg.sender].second_person = second_person;\r\n        addressToRelationship[msg.sender].status = Status.SINGLE;\r\n\r\n        emit RelationshipTerminated( name,  Status.SINGLE);\r\n     }\r\n\r\n    ///@dev Update the number of the kids with SafeMath to prevent overflows\r\n    ///@param kids the number of kids msg.sender wants to add to his relationship \r\n    function addKids( uint kids)\r\n    public\r\n    payable\r\n    inRelationship( msg.sender){\r\n        uint newNumberKids = uint256(kids + addressToRelationship[msg.sender].kids);\r\n        addressToRelationship[msg.sender].kids = newNumberKids;  \r\n\r\n        emit addMoreKids(newNumberKids);\r\n    }\r\n\r\n\r\n    ///@dev Functionality enables user to create a proposal to somebody address.  Will implement later ***\r\n    ///@param user the address you want to propose a relationship to\r\n    function preposeARelationship(address user) public payable{\r\n    }\r\n\r\n    ///@dev Addresses will be in a relationship if the person to whom was the proposal send acecpts the proposal \r\n    ///@param user the address you want to accept his/hers proposition for a relationship\r\n    function acceptRelationship(address user) public payable{\r\n    }\r\n}",
  "sourcePath": "C:\\Users\\The Ripper\\github\\blockchain-developer-bootcamp-final-project\\contracts\\Relationships.sol",
  "compiler": {
    "name": "solc",
    "version": "0.8.10+commit.fc410830.Emscripten.clang"
  },
  "schemaVersion": "3.4.3",
  "updatedAt": "2021-11-29T00:05:34.519Z",
  "networkType": "ethereum",
  "devdoc": {
    "author": "Jurij Porl",
    "details": "You can get hitched on blockchain",
    "events": {
      "RelationshipCreated(string,string,uint8,uint256)": {
        "details": "Emits when createRelathionship function is called"
      },
      "RelationshipTerminated(string,uint8)": {
        "details": "Emits when itsNotWorking function is called"
      },
      "addMoreKids(uint256)": {
        "details": "Emits when addKids function is called"
      }
    },
    "kind": "dev",
    "methods": {
      "acceptRelationship(address)": {
        "details": "Addresses will be in a relationship if the person to whom was the proposal send acecpts the proposal ",
        "params": {
          "user": "the address you want to accept his/hers proposition for a relationship"
        }
      },
      "addKids(uint256)": {
        "details": "Update the number of the kids with SafeMath to prevent overflows",
        "params": {
          "kids": "the number of kids msg.sender wants to add to his relationship "
        }
      },
      "createRelationship(string,string,uint8,uint256)": {
        "details": "Save relationship into the smartcontract",
        "params": {
          "first_person": "first persone of the relationship",
          "kids": "how many kids does those persons have togheter",
          "second_person": "second persone of the relationship",
          "status": "in what kind of relathionship this persons are"
        }
      },
      "itsNotWorking(string)": {
        "details": "Delete the person choosed from the relaationship, used keccak256 to check which person to remove",
        "params": {
          "name": "the persons name we want to remove from relationship"
        }
      },
      "owner()": {
        "details": "Returns the address of the current owner."
      },
      "paused()": {
        "details": "Returns true if the contract is paused, and false otherwise."
      },
      "preposeARelationship(address)": {
        "details": "Functionality enables user to create a proposal to somebody address.  Will implement later ***",
        "params": {
          "user": "the address you want to propose a relationship to"
        }
      },
      "renounceOwnership()": {
        "details": "Leaves the contract without owner. It will not be possible to call `onlyOwner` functions anymore. Can only be called by the current owner. NOTE: Renouncing ownership will leave the contract without an owner, thereby removing any functionality that is only available to the owner."
      },
      "setCut(uint256)": {
        "details": "the cut that the contract will take from every relationship created on it. Will implement later ***",
        "params": {
          "newCut": "is the new value the contract will take for its cut when the relationship is made. Only owner can change that cut "
        }
      },
      "transferOwnership(address)": {
        "details": "Transfers ownership of the contract to a new account (`newOwner`). Can only be called by the current owner."
      }
    },
    "stateVariables": {
      "addressToRelationship": {
        "details": "mapping from a uniqe address to a Relathionship... Our contract practices monogamy so is possible to only have one relationship at time"
      },
      "cut": {
        "details": "the cut that the contract will take from every relationship created on it. Will implement later ***"
      },
      "userPrepositions": {
        "details": "relationship prepositions for a certain address... Will implement later ***"
      }
    },
    "title": "Relationships",
    "version": 1
  },
  "userdoc": {
    "kind": "user",
    "methods": {
      "createRelationship(string,string,uint8,uint256)": {
        "notice": "Create a new relationship"
      }
    },
    "notice": "This contract allows you to define you relationship status on blockchain",
    "version": 1
  }
}